S013000070726F746F747970655F312E737265638B
S113000024C03EC03DC03CC03BC03AC039C038C02B
S1130010C0C136C035C034C033C032C031C030C0B6
S113002070C12EC02DC02CC02BC02AC03CC269C2D6
S113003013C226C0F4C221C323C022C0E6C0ECC050
S1130040F4C0FBC002C10FC122C111241FBECFEFF7
S1130050D2E0DEBFCDBF11E0A0E0B1E0EEE4F7E016
S113006002C005900D92A230B107D9F721E0A2E0B9
S1130070B1E001C01D92A03CB207E1F7A8D165C36D
S1130080BFCFFC0161157105B9F020E030E040E01C
S113009080E0DF01A20FB31F9C91892798E027E03D
S11300A0880F08F482279A95D9F74F5F242F30E000
S11300B02617370770F3089580E008950F931F9370
S11300C0CF93DF93CDB7DEB766970FB6F894DEBF54
S11300D00FBECDBF89019AE5998395EA9A838B83F4
S11300E06C832D83232BA1F080E090E020E0E6E0F8
S11300F0F0E0EC0FFD1FE20FF11DDA01A80FB91FAC
S11301008C9180832F5F822F90E08017910778F382
S1130110B8016D5F7F4FCE010396B3DFFE01E00FA0
S1130120F11F8683B8016A5F7F4FCE01019662D2C8
S113013066960FB6F894DEBF0FBECDBFDF91CF91A8
S11301401F910F9108958FEC90E005D2D49A0895F1
S1130150CF93DF9300D0CDB7DEB7809199018A3079
S1130160D9F580919A018230A1F018F4813031F0F0
S113017033C08330A1F0843029F12EC08AEA898308
S113018021E030E0AE014F5F5F4F64E780E096DF2F
S113019023C080919C0180930301DC9A1DC080914F
S11301A005019091060199838091050190910601C2
S11301B08A8322E030E0AE014F5F5F4F64E780E066
S11301C07DDF0AC086B7898321E030E0AE014F5F4E
S11301D05F4F64E780E072DF0F900F90DF91CF9163
S11301E00895CF93DF93D2D19C012227232B09F0CA
S11301F05EC0E09198014E2F50E04730510508F061
S113020056C0FA01E25EFF4F09948A3509F04FC0E7
S113021081E0809398014BC0853A21F482E0809379
S1130220980145C01092980142C0E9E9F1E0808349
S1130230848B83E0809398013AC0E9E9F1E08183FB
S1130240858B84E08093980132C0E9E9F1E08283F0
S1130250868B882321F085E08093980128C086E06E
S11302608093980124C090910201E92FF0E0E756B1
S1130270FE4F8383878B81E0890F809302019091E5
S11302809B01891314C086E08093980110C0C9E9CA
S1130290D1E08B8B6A8170E06D5F7F4F8DEA91E0D6
S11302A0F0DE9B89891301C053DF109298012FEF70
S11302B081EE94E0215080409040E1F700C00000BE
S11302C0DF91CF910895CF93C62F9C0140E050E079
S11302D064E274EF80E090E01CD2C90182959295AB
S11302E0907F9827807F9827BC01621B730B9B012A
S11302F0C13019F0862F932F02C080E090E0CF9197
S113030008951F920F920FB60F9211242F933F93CB
S11303108F939F93EF93FF93E6ECF0E080819181BC
S113032020910C0130910D01821B930B90930101DC
S1130330809300018081918190930D0180930C0141
S1130340E9ECF0E0908180E48927808380910001CA
S1130350909101018D3B924040F080910001909179
S1130360010190930B0180930A0180910701909100
S1130370080101969093080180930701FF91EF9182
S11303809F918F913F912F910F900FBE0F901F90CF
S113039018951F920F920FB60F9211248F939F936B
S11303A08091070190910801892B21F481E08093C9
S11303B0090102C01092090110920801109207016C
S11303C09F918F910F900FBE0F901F90189580E70B
S11303D08ABB17BA109268001092670083E880BF46
S11303E082E083BFE6E6F0E080818062808316BE0F
S11303F01092CA0084EC8093C9008D9A1FBC84E0DB
S11304008EBD789A2FEF80E792E021508040904093
S1130410E1F700C000008AE080930401D09A93DEE3
S113042078942FEF86E791E0215080409040E1F7E7
S113043000C00000DC986091090180910A0190914C
S11304400B0141DF9093060180930501CADE809180
S1130450030186BFDC98EECF1F920F920FB60F9266
S113046011242F933F938F939F93EF93FF93E5E88A
S1130470F0E080818F7B8083DC983BB32BB381E0F9
S113048090E002C0880F991F3A95E2F782278BBB50
S1130490FF91EF919F918F913F912F910F900FBEFC
S11304A00F901F9018951F920F920FB60F92112460
S11304B02F938F939F93EF93FF93809186002091C6
S11304C080008C71E0915501EF5FEF7190915401C0
S11304D0E91739F0E0935501F0E0E85AFE4F208324
S11304E001C082E090915301892B80935301FF91C5
S11304F0EF919F918F912F910F900FBE0F901F90AE
S113050018951F920F920FB60F9211248F939F93F9
S1130510EF93FF939091570180915601981769F0DA
S1130520E0915601EF5FEF71E0935601F0E0E85877
S1130530FE4F80818093800005C0E5E8F0E0808173
S11305408F7D8083FF91EF919F918F910F900FBECC
S11305500F901F9018951092570110925601109207
S113056055011092540199231CF422E02093860033
S11305709078909382008093810088E9809385002D
S113058086E080938400D49ADC9808959091550174
S1130590809154019817A9F0909154019F5F9F7125
S11305A0E92FF0E0E85AFE4F2081809153019093A7
S11305B054011092530190E0982F8827820F911DC7
S11305C0089580E091E00895209157012F5F2F71E5
S11305D0909156012917E1F3E22FF0E0E858FE4F1D
S11305E0808320935701DC9AE5E8F0E08081806203
S11305F0808308950F931F93CF93DF936115710543
S113060049F08C01EC01060F171F8991DDDFC0173B
S1130610D107D9F7DF91CF911F910F9108951F92C0
S11306200F920FB60F9211242F938F939F93EF93F2
S1130630FF9380919600209190008C71E0911001BD
S1130640EF5FEF7190910F01E91739F0E09310011A
S1130650F0E0ED5EFE4F208301C082E090910E0138
S1130660892B80930E01FF91EF919F918F912F9190
S11306700F900FBE0F901F9018951F920F920FB6F8
S11306800F9211248F939F93EF93FF9390911201F4
S113069080911101981769F0E0911101EF5FEF71FA
S11306A0E0931101F0E0ED5CFE4F808180939000B7
S11306B005C0E5E9F0E080818F7D8083FF91EF91B3
S11306C09F918F910F900FBE0F901F901895A1E2EC
S11306D01A2EAA1BBB1BFD010DC0AA1FBB1FEE1FB8
S11306E0FF1FA217B307E407F50720F0A21BB30B03
S11306F0E40BF50B661F771F881F991F1A9469F77F
S113070060957095809590959B01AC01BD01CF01DA
S11307100895052E97FB16F400940FD057FD05D0CD
S1130720D6DF07FC02D046F408C0509540953095BA
S113073021953F4F4F4F5F4F089590958095709549
S111074061957F4F8F4F9F4F0895F894FFCF20
S105074E0100A4
S9030000FC
